{
  "_format": "hh-sol-artifact-1",
  "contractName": "Central",
  "sourceName": "contracts/Central.sol",
  "abi": [
    {
      "inputs": [
        {
          "internalType": "address",
          "name": "_ownerAddress",
          "type": "address"
        },
        {
          "internalType": "address",
          "name": "_contractAddress",
          "type": "address"
        },
        {
          "internalType": "uint256[]",
          "name": "_products",
          "type": "uint256[]"
        }
      ],
      "name": "addproduct",
      "outputs": [
        {
          "internalType": "string",
          "name": "",
          "type": "string"
        }
      ],
      "stateMutability": "nonpayable",
      "type": "function"
    },
    {
      "inputs": [
        {
          "internalType": "address",
          "name": "_contractAddress",
          "type": "address"
        },
        {
          "internalType": "uint256",
          "name": "_productHashCode",
          "type": "uint256"
        }
      ],
      "name": "checkProduct",
      "outputs": [
        {
          "internalType": "string",
          "name": "",
          "type": "string"
        }
      ],
      "stateMutability": "view",
      "type": "function"
    },
    {
      "inputs": [],
      "name": "createSmartContract",
      "outputs": [],
      "stateMutability": "nonpayable",
      "type": "function"
    },
    {
      "inputs": [
        {
          "internalType": "address",
          "name": "_walletAddress",
          "type": "address"
        }
      ],
      "name": "getCompanySmartContractAddress",
      "outputs": [
        {
          "internalType": "address",
          "name": "",
          "type": "address"
        }
      ],
      "stateMutability": "view",
      "type": "function"
    },
    {
      "inputs": [
        {
          "internalType": "address",
          "name": "_val",
          "type": "address"
        }
      ],
      "name": "retrieve",
      "outputs": [
        {
          "internalType": "address",
          "name": "",
          "type": "address"
        }
      ],
      "stateMutability": "pure",
      "type": "function"
    }
  ],
  "bytecode": "0x6080604052348015600f57600080fd5b506110e08061001f6000396000f3fe608060405234801561001057600080fd5b50600436106100575760003560e01c80630a79309b1461005c57806325a0f0d01461008c5780633e0920f6146100bc5780634d581a37146100ec5780639b7ff3eb146100f6575b600080fd5b6100766004803603810190610071919061044b565b610126565b6040516100839190610487565b60405180910390f35b6100a660048036038101906100a1919061044b565b610130565b6040516100b39190610487565b60405180910390f35b6100d660048036038101906100d19190610631565b610199565b6040516100e3919061071f565b60405180910390f35b6100f4610227565b005b610110600480360381019061010b9190610741565b610343565b60405161011d919061071f565b60405180910390f35b6000819050919050565b6000600160008373ffffffffffffffffffffffffffffffffffffffff1673ffffffffffffffffffffffffffffffffffffffff16815260200190815260200160002060009054906101000a900473ffffffffffffffffffffffffffffffffffffffff169050919050565b60608273ffffffffffffffffffffffffffffffffffffffff166320bf63ac85846040518363ffffffff1660e01b81526004016101d692919061083f565b6000604051808303816000875af11580156101f5573d6000803e3d6000fd5b505050506040513d6000823e3d601f19601f8201168201806040525081019061021e9190610915565b90509392505050565b600033604051610236906103cc565b6102409190610487565b604051809103906000f08015801561025c573d6000803e3d6000fd5b5090506000819080600181540180825580915050600190039060005260206000200160009091909190916101000a81548173ffffffffffffffffffffffffffffffffffffffff021916908373ffffffffffffffffffffffffffffffffffffffff16021790555080600160003373ffffffffffffffffffffffffffffffffffffffff1673ffffffffffffffffffffffffffffffffffffffff16815260200190815260200160002060006101000a81548173ffffffffffffffffffffffffffffffffffffffff021916908373ffffffffffffffffffffffffffffffffffffffff16021790555050565b60608273ffffffffffffffffffffffffffffffffffffffff1663524e8462836040518263ffffffff1660e01b815260040161037e919061096d565b600060405180830381865afa15801561039b573d6000803e3d6000fd5b505050506040513d6000823e3d601f19601f820116820180604052508101906103c49190610915565b905092915050565b6107228061098983390190565b6000604051905090565b600080fd5b600080fd5b600073ffffffffffffffffffffffffffffffffffffffff82169050919050565b6000610418826103ed565b9050919050565b6104288161040d565b811461043357600080fd5b50565b6000813590506104458161041f565b92915050565b600060208284031215610461576104606103e3565b5b600061046f84828501610436565b91505092915050565b6104818161040d565b82525050565b600060208201905061049c6000830184610478565b92915050565b600080fd5b6000601f19601f8301169050919050565b7f4e487b7100000000000000000000000000000000000000000000000000000000600052604160045260246000fd5b6104f0826104a7565b810181811067ffffffffffffffff8211171561050f5761050e6104b8565b5b80604052505050565b60006105226103d9565b905061052e82826104e7565b919050565b600067ffffffffffffffff82111561054e5761054d6104b8565b5b602082029050602081019050919050565b600080fd5b6000819050919050565b61057781610564565b811461058257600080fd5b50565b6000813590506105948161056e565b92915050565b60006105ad6105a884610533565b610518565b905080838252602082019050602084028301858111156105d0576105cf61055f565b5b835b818110156105f957806105e58882610585565b8452602084019350506020810190506105d2565b5050509392505050565b600082601f830112610618576106176104a2565b5b813561062884826020860161059a565b91505092915050565b60008060006060848603121561064a576106496103e3565b5b600061065886828701610436565b935050602061066986828701610436565b925050604084013567ffffffffffffffff81111561068a576106896103e8565b5b61069686828701610603565b9150509250925092565b600081519050919050565b600082825260208201905092915050565b60005b838110156106da5780820151818401526020810190506106bf565b60008484015250505050565b60006106f1826106a0565b6106fb81856106ab565b935061070b8185602086016106bc565b610714816104a7565b840191505092915050565b6000602082019050818103600083015261073981846106e6565b905092915050565b60008060408385031215610758576107576103e3565b5b600061076685828601610436565b925050602061077785828601610585565b9150509250929050565b600081519050919050565b600082825260208201905092915050565b6000819050602082019050919050565b6107b681610564565b82525050565b60006107c883836107ad565b60208301905092915050565b6000602082019050919050565b60006107ec82610781565b6107f6818561078c565b93506108018361079d565b8060005b8381101561083257815161081988826107bc565b9750610824836107d4565b925050600181019050610805565b5085935050505092915050565b60006040820190506108546000830185610478565b818103602083015261086681846107e1565b90509392505050565b600080fd5b600067ffffffffffffffff82111561088f5761088e6104b8565b5b610898826104a7565b9050602081019050919050565b60006108b86108b384610874565b610518565b9050828152602081018484840111156108d4576108d361086f565b5b6108df8482856106bc565b509392505050565b600082601f8301126108fc576108fb6104a2565b5b815161090c8482602086016108a5565b91505092915050565b60006020828403121561092b5761092a6103e3565b5b600082015167ffffffffffffffff811115610949576109486103e8565b5b610955848285016108e7565b91505092915050565b61096781610564565b82525050565b6000602082019050610982600083018461095e565b9291505056fe608060405234801561001057600080fd5b50604051610722380380610722833981810160405281019061003291906100dc565b80600260006101000a81548173ffffffffffffffffffffffffffffffffffffffff021916908373ffffffffffffffffffffffffffffffffffffffff16021790555050610109565b600080fd5b600073ffffffffffffffffffffffffffffffffffffffff82169050919050565b60006100a98261007e565b9050919050565b6100b98161009e565b81146100c457600080fd5b50565b6000815190506100d6816100b0565b92915050565b6000602082840312156100f2576100f1610079565b5b6000610100848285016100c7565b91505092915050565b61060a806101186000396000f3fe608060405234801561001057600080fd5b50600436106100365760003560e01c806320bf63ac1461003b578063524e84621461006b575b600080fd5b6100556004803603810190610050919061047b565b61009b565b6040516100629190610556565b60405180910390f35b61008560048036038101906100809190610578565b6101d7565b6040516100929190610556565b60405180910390f35b6060600260009054906101000a900473ffffffffffffffffffffffffffffffffffffffff1673ffffffffffffffffffffffffffffffffffffffff168373ffffffffffffffffffffffffffffffffffffffff16146100f757600080fd5b60005b8251811015610198576000838281518110610118576101176105a5565b5b60200260200101519080600181540180825580915050600190039060005260206000200160009091909190915055600180600085848151811061015e5761015d6105a5565b5b6020026020010151815260200190815260200160002060006101000a81548160ff02191690831515021790555080806001019150506100fa565b6040518060400160405280600e81526020017f50726f647563747320616464656400000000000000000000000000000000000081525091505092915050565b60606001600083815260200190815260200160002060009054906101000a900460ff161561023c576040518060400160405280600d81526020017f41757468656e74696361746564000000000000000000000000000000000000008152509050610275565b6040518060400160405280600b81526020017f436f756e7465726665697400000000000000000000000000000000000000000081525090505b919050565b6000604051905090565b600080fd5b600080fd5b600073ffffffffffffffffffffffffffffffffffffffff82169050919050565b60006102b98261028e565b9050919050565b6102c9816102ae565b81146102d457600080fd5b50565b6000813590506102e6816102c0565b92915050565b600080fd5b6000601f19601f8301169050919050565b7f4e487b7100000000000000000000000000000000000000000000000000000000600052604160045260246000fd5b61033a826102f1565b810181811067ffffffffffffffff8211171561035957610358610302565b5b80604052505050565b600061036c61027a565b90506103788282610331565b919050565b600067ffffffffffffffff82111561039857610397610302565b5b602082029050602081019050919050565b600080fd5b6000819050919050565b6103c1816103ae565b81146103cc57600080fd5b50565b6000813590506103de816103b8565b92915050565b60006103f76103f28461037d565b610362565b9050808382526020820190506020840283018581111561041a576104196103a9565b5b835b81811015610443578061042f88826103cf565b84526020840193505060208101905061041c565b5050509392505050565b600082601f830112610462576104616102ec565b5b81356104728482602086016103e4565b91505092915050565b6000806040838503121561049257610491610284565b5b60006104a0858286016102d7565b925050602083013567ffffffffffffffff8111156104c1576104c0610289565b5b6104cd8582860161044d565b9150509250929050565b600081519050919050565b600082825260208201905092915050565b60005b838110156105115780820151818401526020810190506104f6565b60008484015250505050565b6000610528826104d7565b61053281856104e2565b93506105428185602086016104f3565b61054b816102f1565b840191505092915050565b60006020820190508181036000830152610570818461051d565b905092915050565b60006020828403121561058e5761058d610284565b5b600061059c848285016103cf565b91505092915050565b7f4e487b7100000000000000000000000000000000000000000000000000000000600052603260045260246000fdfea26469706673582212205ea6f5985397145d0ec248598c3913590c7254dd374fcf99ecc56e133bdeba1864736f6c634300081b0033a2646970667358221220f2eced532eaf6cf09c718015e6790bc7af9162242a386636e2c5ea920fba211564736f6c634300081b0033",
  "linkReferences": {},
  "deployedLinkReferences": {}
}