{
  "_format": "hh-sol-artifact-1",
  "contractName": "Company",
  "sourceName": "contracts/Company.sol",
  "abi": [
    {
      "inputs": [
        {
          "internalType": "address",
          "name": "_owner",
          "type": "address"
        }
      ],
      "stateMutability": "nonpayable",
      "type": "constructor"
    },
    {
      "inputs": [
        {
          "internalType": "address",
          "name": "_ownerAddress",
          "type": "address"
        },
        {
          "internalType": "uint256[]",
          "name": "_products",
          "type": "uint256[]"
        }
      ],
      "name": "addProducts",
      "outputs": [
        {
          "internalType": "string",
          "name": "",
          "type": "string"
        }
      ],
      "stateMutability": "nonpayable",
      "type": "function"
    },
    {
      "inputs": [
        {
          "internalType": "uint256",
          "name": "_hashcode",
          "type": "uint256"
        }
      ],
      "name": "verifyProduct",
      "outputs": [
        {
          "internalType": "string",
          "name": "",
          "type": "string"
        }
      ],
      "stateMutability": "view",
      "type": "function"
    }
  ],
  "bytecode": "0x608060405234801561001057600080fd5b50604051610722380380610722833981810160405281019061003291906100dc565b80600260006101000a81548173ffffffffffffffffffffffffffffffffffffffff021916908373ffffffffffffffffffffffffffffffffffffffff16021790555050610109565b600080fd5b600073ffffffffffffffffffffffffffffffffffffffff82169050919050565b60006100a98261007e565b9050919050565b6100b98161009e565b81146100c457600080fd5b50565b6000815190506100d6816100b0565b92915050565b6000602082840312156100f2576100f1610079565b5b6000610100848285016100c7565b91505092915050565b61060a806101186000396000f3fe608060405234801561001057600080fd5b50600436106100365760003560e01c806320bf63ac1461003b578063524e84621461006b575b600080fd5b6100556004803603810190610050919061047b565b61009b565b6040516100629190610556565b60405180910390f35b61008560048036038101906100809190610578565b6101d7565b6040516100929190610556565b60405180910390f35b6060600260009054906101000a900473ffffffffffffffffffffffffffffffffffffffff1673ffffffffffffffffffffffffffffffffffffffff168373ffffffffffffffffffffffffffffffffffffffff16146100f757600080fd5b60005b8251811015610198576000838281518110610118576101176105a5565b5b60200260200101519080600181540180825580915050600190039060005260206000200160009091909190915055600180600085848151811061015e5761015d6105a5565b5b6020026020010151815260200190815260200160002060006101000a81548160ff02191690831515021790555080806001019150506100fa565b6040518060400160405280600e81526020017f50726f647563747320616464656400000000000000000000000000000000000081525091505092915050565b60606001600083815260200190815260200160002060009054906101000a900460ff161561023c576040518060400160405280600d81526020017f41757468656e74696361746564000000000000000000000000000000000000008152509050610275565b6040518060400160405280600b81526020017f436f756e7465726665697400000000000000000000000000000000000000000081525090505b919050565b6000604051905090565b600080fd5b600080fd5b600073ffffffffffffffffffffffffffffffffffffffff82169050919050565b60006102b98261028e565b9050919050565b6102c9816102ae565b81146102d457600080fd5b50565b6000813590506102e6816102c0565b92915050565b600080fd5b6000601f19601f8301169050919050565b7f4e487b7100000000000000000000000000000000000000000000000000000000600052604160045260246000fd5b61033a826102f1565b810181811067ffffffffffffffff8211171561035957610358610302565b5b80604052505050565b600061036c61027a565b90506103788282610331565b919050565b600067ffffffffffffffff82111561039857610397610302565b5b602082029050602081019050919050565b600080fd5b6000819050919050565b6103c1816103ae565b81146103cc57600080fd5b50565b6000813590506103de816103b8565b92915050565b60006103f76103f28461037d565b610362565b9050808382526020820190506020840283018581111561041a576104196103a9565b5b835b81811015610443578061042f88826103cf565b84526020840193505060208101905061041c565b5050509392505050565b600082601f830112610462576104616102ec565b5b81356104728482602086016103e4565b91505092915050565b6000806040838503121561049257610491610284565b5b60006104a0858286016102d7565b925050602083013567ffffffffffffffff8111156104c1576104c0610289565b5b6104cd8582860161044d565b9150509250929050565b600081519050919050565b600082825260208201905092915050565b60005b838110156105115780820151818401526020810190506104f6565b60008484015250505050565b6000610528826104d7565b61053281856104e2565b93506105428185602086016104f3565b61054b816102f1565b840191505092915050565b60006020820190508181036000830152610570818461051d565b905092915050565b60006020828403121561058e5761058d610284565b5b600061059c848285016103cf565b91505092915050565b7f4e487b7100000000000000000000000000000000000000000000000000000000600052603260045260246000fdfea26469706673582212205ea6f5985397145d0ec248598c3913590c7254dd374fcf99ecc56e133bdeba1864736f6c634300081b0033",
  "linkReferences": {},
  "deployedLinkReferences": {}
}